{
  "address": "0x10e5249C614140D5e8655d79b2f9D645f4ea003D",
  "abi": [
    {
      "inputs": [
        {
          "internalType": "contract IERC20Mintable",
          "name": "_kiki",
          "type": "address"
        },
        {
          "internalType": "contract SyrupBar",
          "name": "_syrup",
          "type": "address"
        },
        {
          "internalType": "uint256",
          "name": "_kikiPerBlock",
          "type": "uint256"
        },
        {
          "internalType": "uint256",
          "name": "_startBlock",
          "type": "uint256"
        }
      ],
      "stateMutability": "nonpayable",
      "type": "constructor"
    },
    {
      "anonymous": false,
      "inputs": [
        {
          "indexed": true,
          "internalType": "address",
          "name": "user",
          "type": "address"
        },
        {
          "indexed": true,
          "internalType": "uint256",
          "name": "pid",
          "type": "uint256"
        },
        {
          "indexed": false,
          "internalType": "uint256",
          "name": "amount",
          "type": "uint256"
        }
      ],
      "name": "Deposit",
      "type": "event"
    },
    {
      "anonymous": false,
      "inputs": [
        {
          "indexed": true,
          "internalType": "address",
          "name": "user",
          "type": "address"
        },
        {
          "indexed": true,
          "internalType": "uint256",
          "name": "pid",
          "type": "uint256"
        },
        {
          "indexed": false,
          "internalType": "uint256",
          "name": "amount",
          "type": "uint256"
        }
      ],
      "name": "EmergencyWithdraw",
      "type": "event"
    },
    {
      "anonymous": false,
      "inputs": [
        {
          "indexed": true,
          "internalType": "address",
          "name": "previousOwner",
          "type": "address"
        },
        {
          "indexed": true,
          "internalType": "address",
          "name": "newOwner",
          "type": "address"
        }
      ],
      "name": "OwnershipTransferred",
      "type": "event"
    },
    {
      "anonymous": false,
      "inputs": [
        {
          "indexed": true,
          "internalType": "address",
          "name": "user",
          "type": "address"
        },
        {
          "indexed": true,
          "internalType": "uint256",
          "name": "pid",
          "type": "uint256"
        },
        {
          "indexed": false,
          "internalType": "uint256",
          "name": "amount",
          "type": "uint256"
        }
      ],
      "name": "Withdraw",
      "type": "event"
    },
    {
      "inputs": [],
      "name": "BONUS_MULTIPLIER",
      "outputs": [
        {
          "internalType": "uint256",
          "name": "",
          "type": "uint256"
        }
      ],
      "stateMutability": "view",
      "type": "function"
    },
    {
      "inputs": [
        {
          "internalType": "uint256",
          "name": "_allocPoint",
          "type": "uint256"
        },
        {
          "internalType": "contract IERC20",
          "name": "_lpToken",
          "type": "address"
        },
        {
          "internalType": "bool",
          "name": "_withUpdate",
          "type": "bool"
        }
      ],
      "name": "add",
      "outputs": [],
      "stateMutability": "nonpayable",
      "type": "function"
    },
    {
      "inputs": [
        {
          "internalType": "uint256",
          "name": "_pid",
          "type": "uint256"
        },
        {
          "internalType": "uint256",
          "name": "_amount",
          "type": "uint256"
        }
      ],
      "name": "deposit",
      "outputs": [],
      "stateMutability": "nonpayable",
      "type": "function"
    },
    {
      "inputs": [
        {
          "internalType": "uint256",
          "name": "_pid",
          "type": "uint256"
        }
      ],
      "name": "emergencyWithdraw",
      "outputs": [],
      "stateMutability": "nonpayable",
      "type": "function"
    },
    {
      "inputs": [
        {
          "internalType": "uint256",
          "name": "_amount",
          "type": "uint256"
        }
      ],
      "name": "enterStaking",
      "outputs": [],
      "stateMutability": "nonpayable",
      "type": "function"
    },
    {
      "inputs": [
        {
          "internalType": "uint256",
          "name": "_from",
          "type": "uint256"
        },
        {
          "internalType": "uint256",
          "name": "_to",
          "type": "uint256"
        }
      ],
      "name": "getMultiplier",
      "outputs": [
        {
          "internalType": "uint256",
          "name": "",
          "type": "uint256"
        }
      ],
      "stateMutability": "view",
      "type": "function"
    },
    {
      "inputs": [],
      "name": "kiki",
      "outputs": [
        {
          "internalType": "contract IERC20Mintable",
          "name": "",
          "type": "address"
        }
      ],
      "stateMutability": "view",
      "type": "function"
    },
    {
      "inputs": [],
      "name": "kikiPerBlock",
      "outputs": [
        {
          "internalType": "uint256",
          "name": "",
          "type": "uint256"
        }
      ],
      "stateMutability": "view",
      "type": "function"
    },
    {
      "inputs": [
        {
          "internalType": "uint256",
          "name": "_amount",
          "type": "uint256"
        }
      ],
      "name": "leaveStaking",
      "outputs": [],
      "stateMutability": "nonpayable",
      "type": "function"
    },
    {
      "inputs": [],
      "name": "massUpdatePools",
      "outputs": [],
      "stateMutability": "nonpayable",
      "type": "function"
    },
    {
      "inputs": [],
      "name": "owner",
      "outputs": [
        {
          "internalType": "address",
          "name": "",
          "type": "address"
        }
      ],
      "stateMutability": "view",
      "type": "function"
    },
    {
      "inputs": [
        {
          "internalType": "uint256",
          "name": "_pid",
          "type": "uint256"
        },
        {
          "internalType": "address",
          "name": "_user",
          "type": "address"
        }
      ],
      "name": "pendingKiKi",
      "outputs": [
        {
          "internalType": "uint256",
          "name": "",
          "type": "uint256"
        }
      ],
      "stateMutability": "view",
      "type": "function"
    },
    {
      "inputs": [
        {
          "internalType": "uint256",
          "name": "",
          "type": "uint256"
        }
      ],
      "name": "poolInfo",
      "outputs": [
        {
          "internalType": "contract IERC20",
          "name": "lpToken",
          "type": "address"
        },
        {
          "internalType": "uint256",
          "name": "allocPoint",
          "type": "uint256"
        },
        {
          "internalType": "uint256",
          "name": "lastRewardBlock",
          "type": "uint256"
        },
        {
          "internalType": "uint256",
          "name": "accKiKiPerShare",
          "type": "uint256"
        }
      ],
      "stateMutability": "view",
      "type": "function"
    },
    {
      "inputs": [],
      "name": "poolLength",
      "outputs": [
        {
          "internalType": "uint256",
          "name": "",
          "type": "uint256"
        }
      ],
      "stateMutability": "view",
      "type": "function"
    },
    {
      "inputs": [],
      "name": "renounceOwnership",
      "outputs": [],
      "stateMutability": "nonpayable",
      "type": "function"
    },
    {
      "inputs": [
        {
          "internalType": "uint256",
          "name": "_pid",
          "type": "uint256"
        },
        {
          "internalType": "uint256",
          "name": "_allocPoint",
          "type": "uint256"
        },
        {
          "internalType": "bool",
          "name": "_withUpdate",
          "type": "bool"
        }
      ],
      "name": "set",
      "outputs": [],
      "stateMutability": "nonpayable",
      "type": "function"
    },
    {
      "inputs": [],
      "name": "startBlock",
      "outputs": [
        {
          "internalType": "uint256",
          "name": "",
          "type": "uint256"
        }
      ],
      "stateMutability": "view",
      "type": "function"
    },
    {
      "inputs": [],
      "name": "syrup",
      "outputs": [
        {
          "internalType": "contract SyrupBar",
          "name": "",
          "type": "address"
        }
      ],
      "stateMutability": "view",
      "type": "function"
    },
    {
      "inputs": [],
      "name": "totalAllocPoint",
      "outputs": [
        {
          "internalType": "uint256",
          "name": "",
          "type": "uint256"
        }
      ],
      "stateMutability": "view",
      "type": "function"
    },
    {
      "inputs": [
        {
          "internalType": "address",
          "name": "newOwner",
          "type": "address"
        }
      ],
      "name": "transferOwnership",
      "outputs": [],
      "stateMutability": "nonpayable",
      "type": "function"
    },
    {
      "inputs": [
        {
          "internalType": "uint256",
          "name": "multiplierNumber",
          "type": "uint256"
        }
      ],
      "name": "updateMultiplier",
      "outputs": [],
      "stateMutability": "nonpayable",
      "type": "function"
    },
    {
      "inputs": [
        {
          "internalType": "uint256",
          "name": "_pid",
          "type": "uint256"
        }
      ],
      "name": "updatePool",
      "outputs": [],
      "stateMutability": "nonpayable",
      "type": "function"
    },
    {
      "inputs": [
        {
          "internalType": "uint256",
          "name": "",
          "type": "uint256"
        },
        {
          "internalType": "address",
          "name": "",
          "type": "address"
        }
      ],
      "name": "userInfo",
      "outputs": [
        {
          "internalType": "uint256",
          "name": "amount",
          "type": "uint256"
        },
        {
          "internalType": "uint256",
          "name": "rewardDebt",
          "type": "uint256"
        }
      ],
      "stateMutability": "view",
      "type": "function"
    },
    {
      "inputs": [
        {
          "internalType": "uint256",
          "name": "_pid",
          "type": "uint256"
        },
        {
          "internalType": "uint256",
          "name": "_amount",
          "type": "uint256"
        }
      ],
      "name": "withdraw",
      "outputs": [],
      "stateMutability": "nonpayable",
      "type": "function"
    }
  ],
  "transactionHash": "0x9045209242bf10e6a216bd2759b4bfa23c2e528d180bd2f52164dc8bfc87e5a6",
  "args": [
    "0x456469b4FCd1993A734fe7caE3bE039aB946BA9A",
    "0x23Ef932A264B8262f866A5505ACde8B588DF73A6",
    "10000000000000000000",
    0
  ],
  "numDeployments": 1,
  "solcInputHash": "07b2c9d278da161b466ace643d4a2603",
  "bytecode": "0x60806040526001600455600060075534801561001a57600080fd5b50604051611cbc380380611cbc8339818101604052608081101561003d57600080fd5b5080516020820151604083015160609093015191929091600061005e6101c8565b600080546001600160a01b0319166001600160a01b0383169081178255604051929350917f8be0079c531659141344cd1fd0a4f28419497f9722a3daafe3b4186f6b6457e0908290a350600180546001600160a01b03199081166001600160a01b039687169081178355600280548316968816969096179095556003939093556008829055604080516080810182529485526103e86020860181815291860193845260006060870181815260058054958601815590915295517f036b6384b5eca791c62761152d0c79bb0604c104a5fb6f4eb0703f3154bb3db06004909402938401805490961697169690961790935591517f036b6384b5eca791c62761152d0c79bb0604c104a5fb6f4eb0703f3154bb3db1830155517f036b6384b5eca791c62761152d0c79bb0604c104a5fb6f4eb0703f3154bb3db282015590517f036b6384b5eca791c62761152d0c79bb0604c104a5fb6f4eb0703f3154bb3db3909101556007556101cc565b3390565b611ae1806101db6000396000f3fe608060405234801561001057600080fd5b50600436106101585760003560e01c8063630b5ba1116100c35780638da5cb5b1161007c5780638da5cb5b146103595780638dbb1e3a1461036157806393f1a40b14610384578063b173ade4146103c9578063e2bbb158146103d1578063f2fde38b146103f457610158565b8063630b5ba1146102e257806364482f79146102ea578063715018a6146103155780637710d9001461031d57806386a952c4146103495780638aa285501461035157610158565b8063441a3e7011610115578063441a3e701461023c57806348cd4cb11461025f57806351eb05a6146102675780635312ea8e146102845780635d4cbb3c146102a15780635ffe6146146102c557610158565b8063081e3eda1461015d5780631058d281146101775780631526fe271461019657806317caf6f1146101e35780631eaaa045146101eb57806341441d3b1461021f575b600080fd5b61016561041a565b60408051918252519081900360200190f35b6101946004803603602081101561018d57600080fd5b5035610420565b005b6101b3600480360360208110156101ac57600080fd5b5035610604565b604080516001600160a01b0390951685526020850193909352838301919091526060830152519081900360800190f35b610165610645565b6101946004803603606081101561020157600080fd5b508035906001600160a01b036020820135169060400135151561064b565b6101946004803603602081101561023557600080fd5b50356107db565b6101946004803603604081101561025257600080fd5b508035906020013561096f565b610165610b14565b6101946004803603602081101561027d57600080fd5b5035610b1a565b6101946004803603602081101561029a57600080fd5b5035610cd0565b6102a9610d6b565b604080516001600160a01b039092168252519081900360200190f35b610194600480360360208110156102db57600080fd5b5035610d7a565b610194610de1565b6101946004803603606081101561030057600080fd5b50803590602081013590604001351515610e04565b610194610f0c565b6101656004803603604081101561033357600080fd5b50803590602001356001600160a01b0316610fb8565b6102a961111c565b61016561112b565b6102a9611131565b6101656004803603604081101561037757600080fd5b5080359060200135611140565b6103b06004803603604081101561039a57600080fd5b50803590602001356001600160a01b031661115b565b6040805192835260208301919091528051918290030190f35b61016561117f565b610194600480360360408110156103e757600080fd5b5080359060200135611185565b6101946004803603602081101561040a57600080fd5b50356001600160a01b03166112e9565b60055490565b6000600560008154811061043057fe5b600091825260208083203384527f54cdd369e4e8a8515e52ca72ec816c2101831ad1f18bf44102ed171459c9b4f890915260409092208054600490920290920192508311156104bb576040805162461bcd60e51b81526020600482015260126024820152711dda5d1a191c985dce881b9bdd0819dbdbd960721b604482015290519081900360640190fd5b6104c56000610b1a565b60006104ff82600101546104f964e8d4a510006104f3876003015487600001546113eb90919063ffffffff16565b90611444565b906114ab565b90508015610511576105113382611508565b831561053b57815461052390856114ab565b8255825461053b906001600160a01b03163386611579565b600383015482546105569164e8d4a51000916104f3916113eb565b600183015560025460408051632770a7eb60e21b81523360048201526024810187905290516001600160a01b0390921691639dc29fac9160448082019260009290919082900301818387803b1580156105ae57600080fd5b505af11580156105c2573d6000803e3d6000fd5b5050604080518781529051600093503392507ff279e6a1f5e320cca91135676d9cb6e44ca8a08c0b88342bcdb1144f6511b5689181900360200190a350505050565b6005818154811061061157fe5b600091825260209091206004909102018054600182015460028301546003909301546001600160a01b039092169350919084565b60075481565b6106536115d0565b6001600160a01b0316610664611131565b6001600160a01b0316146106ad576040805162461bcd60e51b81526020600482018190526024820152600080516020611a62833981519152604482015290519081900360640190fd5b80156106bb576106bb610de1565b600060085443116106ce576008546106d0565b435b6007549091506106e090856115d4565b600755604080516080810182526001600160a01b0385811682526020820187815292820184815260006060840181815260058054600181018255925293517f036b6384b5eca791c62761152d0c79bb0604c104a5fb6f4eb0703f3154bb3db0600490920291820180546001600160a01b031916919094161790925592517f036b6384b5eca791c62761152d0c79bb0604c104a5fb6f4eb0703f3154bb3db182015591517f036b6384b5eca791c62761152d0c79bb0604c104a5fb6f4eb0703f3154bb3db2830155517f036b6384b5eca791c62761152d0c79bb0604c104a5fb6f4eb0703f3154bb3db3909101556107d561162e565b50505050565b600060056000815481106107eb57fe5b600091825260208083203384527f54cdd369e4e8a8515e52ca72ec816c2101831ad1f18bf44102ed171459c9b4f89091526040832060049092020192509061083290610b1a565b80541561087b57600061086782600101546104f964e8d4a510006104f3876003015487600001546113eb90919063ffffffff16565b90508015610879576108793382611508565b505b82156108a7578154610898906001600160a01b03163330866116d0565b80546108a490846115d4565b81555b600382015481546108c29164e8d4a51000916104f3916113eb565b6001820155600254604080516340c10f1960e01b81523360048201526024810186905290516001600160a01b03909216916340c10f199160448082019260009290919082900301818387803b15801561091a57600080fd5b505af115801561092e573d6000803e3d6000fd5b5050604080518681529051600093503392507f90890809c654f11d6e72a28fa60149770a0d11ec6c92319d6ceb2bb0a4ea1a159181900360200190a3505050565b816109c1576040805162461bcd60e51b815260206004820152601a60248201527f7769746864726177204b494b4920627920756e7374616b696e67000000000000604482015290519081900360640190fd5b6000600583815481106109d057fe5b600091825260208083208684526006825260408085203386529092529220805460049092029092019250831115610a43576040805162461bcd60e51b81526020600482015260126024820152711dda5d1a191c985dce881b9bdd0819dbdbd960721b604482015290519081900360640190fd5b610a4c84610b1a565b6000610a7a82600101546104f964e8d4a510006104f3876003015487600001546113eb90919063ffffffff16565b90508015610a8c57610a8c3382611508565b8315610ab6578154610a9e90856114ab565b82558254610ab6906001600160a01b03163386611579565b60038301548254610ad19164e8d4a51000916104f3916113eb565b6001830155604080518581529051869133917ff279e6a1f5e320cca91135676d9cb6e44ca8a08c0b88342bcdb1144f6511b5689181900360200190a35050505050565b60085481565b600060058281548110610b2957fe5b9060005260206000209060040201905080600201544311610b4a5750610ccd565b8054604080516370a0823160e01b815230600482015290516000926001600160a01b0316916370a08231916024808301926020929190829003018186803b158015610b9457600080fd5b505afa158015610ba8573d6000803e3d6000fd5b505050506040513d6020811015610bbe57600080fd5b5051905080610bd4575043600290910155610ccd565b6000610be4836002015443611140565b90506000610c116007546104f38660010154610c0b600354876113eb90919063ffffffff16565b906113eb565b600154600254604080516340c10f1960e01b81526001600160a01b0392831660048201526024810185905290519394509116916340c10f19916044808201926020929091908290030181600087803b158015610c6c57600080fd5b505af1158015610c80573d6000803e3d6000fd5b505050506040513d6020811015610c9657600080fd5b50610cba9050610caf846104f38464e8d4a510006113eb565b6003860154906115d4565b6003850155505043600290920191909155505b50565b600060058281548110610cdf57fe5b60009182526020808320858452600682526040808520338087529352909320805460049093029093018054909450610d24926001600160a01b03919091169190611579565b80546040805191825251849133917fbb757047c2b5f3974fe26b7c10f732e7bce710b0952a71082702781e62ae05959181900360200190a360008082556001909101555050565b6001546001600160a01b031681565b610d826115d0565b6001600160a01b0316610d93611131565b6001600160a01b031614610ddc576040805162461bcd60e51b81526020600482018190526024820152600080516020611a62833981519152604482015290519081900360640190fd5b600455565b60055460005b81811015610e0057610df881610b1a565b600101610de7565b5050565b610e0c6115d0565b6001600160a01b0316610e1d611131565b6001600160a01b031614610e66576040805162461bcd60e51b81526020600482018190526024820152600080516020611a62833981519152604482015290519081900360640190fd5b8015610e7457610e74610de1565b610eb182610eab60058681548110610e8857fe5b9060005260206000209060040201600101546007546114ab90919063ffffffff16565b906115d4565b600781905550600060058481548110610ec657fe5b90600052602060002090600402016001015490508260058581548110610ee857fe5b9060005260206000209060040201600101819055508281146107d5576107d561162e565b610f146115d0565b6001600160a01b0316610f25611131565b6001600160a01b031614610f6e576040805162461bcd60e51b81526020600482018190526024820152600080516020611a62833981519152604482015290519081900360640190fd5b600080546040516001600160a01b03909116907f8be0079c531659141344cd1fd0a4f28419497f9722a3daafe3b4186f6b6457e0908390a3600080546001600160a01b0319169055565b60008060058481548110610fc857fe5b600091825260208083208784526006825260408085206001600160a01b03898116875290845281862060049586029093016003810154815484516370a0823160e01b81523098810198909852935191985093969395939492909116926370a08231926024808301939192829003018186803b15801561104657600080fd5b505afa15801561105a573d6000803e3d6000fd5b505050506040513d602081101561107057600080fd5b505160028501549091504311801561108757508015155b156110e757600061109c856002015443611140565b905060006110c36007546104f38860010154610c0b600354876113eb90919063ffffffff16565b90506110e26110db846104f38464e8d4a510006113eb565b85906115d4565b935050505b61110f83600101546104f964e8d4a510006104f38688600001546113eb90919063ffffffff16565b9450505050505b92915050565b6002546001600160a01b031681565b60045481565b6000546001600160a01b031690565b60045460009061115490610c0b84866114ab565b9392505050565b60066020908152600092835260408084209091529082529020805460019091015482565b60035481565b816111d7576040805162461bcd60e51b815260206004820152601760248201527f6465706f736974204b494b49206279207374616b696e67000000000000000000604482015290519081900360640190fd5b6000600583815481106111e657fe5b6000918252602080832086845260068252604080852033865290925292206004909102909101915061121784610b1a565b80541561126057600061124c82600101546104f964e8d4a510006104f3876003015487600001546113eb90919063ffffffff16565b9050801561125e5761125e3382611508565b505b821561128c57815461127d906001600160a01b03163330866116d0565b805461128990846115d4565b81555b600382015481546112a79164e8d4a51000916104f3916113eb565b6001820155604080518481529051859133917f90890809c654f11d6e72a28fa60149770a0d11ec6c92319d6ceb2bb0a4ea1a159181900360200190a350505050565b6112f16115d0565b6001600160a01b0316611302611131565b6001600160a01b03161461134b576040805162461bcd60e51b81526020600482018190526024820152600080516020611a62833981519152604482015290519081900360640190fd5b6001600160a01b0381166113905760405162461bcd60e51b81526004018080602001828103825260268152602001806119f56026913960400191505060405180910390fd5b600080546040516001600160a01b03808516939216917f8be0079c531659141344cd1fd0a4f28419497f9722a3daafe3b4186f6b6457e091a3600080546001600160a01b0319166001600160a01b0392909216919091179055565b6000826113fa57506000611116565b8282028284828161140757fe5b04146111545760405162461bcd60e51b8152600401808060200182810382526021815260200180611a416021913960400191505060405180910390fd5b600080821161149a576040805162461bcd60e51b815260206004820152601a60248201527f536166654d6174683a206469766973696f6e206279207a65726f000000000000604482015290519081900360640190fd5b8183816114a357fe5b049392505050565b600082821115611502576040805162461bcd60e51b815260206004820152601e60248201527f536166654d6174683a207375627472616374696f6e206f766572666c6f770000604482015290519081900360640190fd5b50900390565b60025460408051631777090b60e21b81526001600160a01b0385811660048301526024820185905291519190921691635ddc242c91604480830192600092919082900301818387803b15801561155d57600080fd5b505af1158015611571573d6000803e3d6000fd5b505050505050565b604080516001600160a01b038416602482015260448082018490528251808303909101815260649091019091526020810180516001600160e01b031663a9059cbb60e01b1790526115cb908490611726565b505050565b3390565b600082820183811015611154576040805162461bcd60e51b815260206004820152601b60248201527f536166654d6174683a206164646974696f6e206f766572666c6f770000000000604482015290519081900360640190fd5b600554600060015b828110156116795761166f6005828154811061164e57fe5b906000526020600020906004020160010154836115d490919063ffffffff16565b9150600101611636565b508015610e005761168b816003611444565b90506116a281610eab6005600081548110610e8857fe5b6007819055508060056000815481106116b757fe5b9060005260206000209060040201600101819055505050565b604080516001600160a01b0380861660248301528416604482015260648082018490528251808303909101815260849091019091526020810180516001600160e01b03166323b872dd60e01b1790526107d59085905b606061177b826040518060400160405280602081526020017f5361666545524332303a206c6f772d6c6576656c2063616c6c206661696c6564815250856001600160a01b03166117d79092919063ffffffff16565b8051909150156115cb5780806020019051602081101561179a57600080fd5b50516115cb5760405162461bcd60e51b815260040180806020018281038252602a815260200180611a82602a913960400191505060405180910390fd5b60606117e684846000856117ee565b949350505050565b60608247101561182f5760405162461bcd60e51b8152600401808060200182810382526026815260200180611a1b6026913960400191505060405180910390fd5b6118388561194a565b611889576040805162461bcd60e51b815260206004820152601d60248201527f416464726573733a2063616c6c20746f206e6f6e2d636f6e7472616374000000604482015290519081900360640190fd5b60006060866001600160a01b031685876040518082805190602001908083835b602083106118c85780518252601f1990920191602091820191016118a9565b6001836020036101000a03801982511681845116808217855250505050505090500191505060006040518083038185875af1925050503d806000811461192a576040519150601f19603f3d011682016040523d82523d6000602084013e61192f565b606091505b509150915061193f828286611950565b979650505050505050565b3b151590565b6060831561195f575081611154565b82511561196f5782518084602001fd5b8160405162461bcd60e51b81526004018080602001828103825283818151815260200191508051906020019080838360005b838110156119b95781810151838201526020016119a1565b50505050905090810190601f1680156119e65780820380516001836020036101000a031916815260200191505b509250505060405180910390fdfe4f776e61626c653a206e6577206f776e657220697320746865207a65726f2061646472657373416464726573733a20696e73756666696369656e742062616c616e636520666f722063616c6c536166654d6174683a206d756c7469706c69636174696f6e206f766572666c6f774f776e61626c653a2063616c6c6572206973206e6f7420746865206f776e65725361666545524332303a204552433230206f7065726174696f6e20646964206e6f742073756363656564a2646970667358221220bb556de554caf7d79d09f5d36d832c3a38339f4c198bed8e514522c0c4ddd8ee64736f6c634300060c0033",
  "devdoc": {
    "kind": "dev",
    "methods": {
      "owner()": {
        "details": "Returns the address of the current owner."
      },
      "renounceOwnership()": {
        "details": "Leaves the contract without owner. It will not be possible to call `onlyOwner` functions anymore. Can only be called by the current owner. NOTE: Renouncing ownership will leave the contract without an owner, thereby removing any functionality that is only available to the owner."
      },
      "transferOwnership(address)": {
        "details": "Transfers ownership of the contract to a new account (`newOwner`). Can only be called by the current owner."
      }
    },
    "version": 1
  },
  "userdoc": {
    "kind": "user",
    "methods": {},
    "version": 1
  },
  "storageLayout": {
    "storage": [
      {
        "astId": 7,
        "contract": "contracts/MasterChef.sol:MasterChef",
        "label": "_owner",
        "offset": 0,
        "slot": "0",
        "type": "t_address"
      },
      {
        "astId": 1609,
        "contract": "contracts/MasterChef.sol:MasterChef",
        "label": "kiki",
        "offset": 0,
        "slot": "1",
        "type": "t_contract(IERC20Mintable)2791"
      },
      {
        "astId": 1611,
        "contract": "contracts/MasterChef.sol:MasterChef",
        "label": "syrup",
        "offset": 0,
        "slot": "2",
        "type": "t_contract(SyrupBar)2776"
      },
      {
        "astId": 1613,
        "contract": "contracts/MasterChef.sol:MasterChef",
        "label": "kikiPerBlock",
        "offset": 0,
        "slot": "3",
        "type": "t_uint256"
      },
      {
        "astId": 1616,
        "contract": "contracts/MasterChef.sol:MasterChef",
        "label": "BONUS_MULTIPLIER",
        "offset": 0,
        "slot": "4",
        "type": "t_uint256"
      },
      {
        "astId": 1619,
        "contract": "contracts/MasterChef.sol:MasterChef",
        "label": "poolInfo",
        "offset": 0,
        "slot": "5",
        "type": "t_array(t_struct(PoolInfo)1607_storage)dyn_storage"
      },
      {
        "astId": 1625,
        "contract": "contracts/MasterChef.sol:MasterChef",
        "label": "userInfo",
        "offset": 0,
        "slot": "6",
        "type": "t_mapping(t_uint256,t_mapping(t_address,t_struct(UserInfo)1598_storage))"
      },
      {
        "astId": 1628,
        "contract": "contracts/MasterChef.sol:MasterChef",
        "label": "totalAllocPoint",
        "offset": 0,
        "slot": "7",
        "type": "t_uint256"
      },
      {
        "astId": 1630,
        "contract": "contracts/MasterChef.sol:MasterChef",
        "label": "startBlock",
        "offset": 0,
        "slot": "8",
        "type": "t_uint256"
      }
    ],
    "types": {
      "t_address": {
        "encoding": "inplace",
        "label": "address",
        "numberOfBytes": "20"
      },
      "t_array(t_struct(PoolInfo)1607_storage)dyn_storage": {
        "base": "t_struct(PoolInfo)1607_storage",
        "encoding": "dynamic_array",
        "label": "struct MasterChef.PoolInfo[]",
        "numberOfBytes": "32"
      },
      "t_contract(IERC20)1045": {
        "encoding": "inplace",
        "label": "contract IERC20",
        "numberOfBytes": "20"
      },
      "t_contract(IERC20Mintable)2791": {
        "encoding": "inplace",
        "label": "contract IERC20Mintable",
        "numberOfBytes": "20"
      },
      "t_contract(SyrupBar)2776": {
        "encoding": "inplace",
        "label": "contract SyrupBar",
        "numberOfBytes": "20"
      },
      "t_mapping(t_address,t_struct(UserInfo)1598_storage)": {
        "encoding": "mapping",
        "key": "t_address",
        "label": "mapping(address => struct MasterChef.UserInfo)",
        "numberOfBytes": "32",
        "value": "t_struct(UserInfo)1598_storage"
      },
      "t_mapping(t_uint256,t_mapping(t_address,t_struct(UserInfo)1598_storage))": {
        "encoding": "mapping",
        "key": "t_uint256",
        "label": "mapping(uint256 => mapping(address => struct MasterChef.UserInfo))",
        "numberOfBytes": "32",
        "value": "t_mapping(t_address,t_struct(UserInfo)1598_storage)"
      },
      "t_struct(PoolInfo)1607_storage": {
        "encoding": "inplace",
        "label": "struct MasterChef.PoolInfo",
        "members": [
          {
            "astId": 1600,
            "contract": "contracts/MasterChef.sol:MasterChef",
            "label": "lpToken",
            "offset": 0,
            "slot": "0",
            "type": "t_contract(IERC20)1045"
          },
          {
            "astId": 1602,
            "contract": "contracts/MasterChef.sol:MasterChef",
            "label": "allocPoint",
            "offset": 0,
            "slot": "1",
            "type": "t_uint256"
          },
          {
            "astId": 1604,
            "contract": "contracts/MasterChef.sol:MasterChef",
            "label": "lastRewardBlock",
            "offset": 0,
            "slot": "2",
            "type": "t_uint256"
          },
          {
            "astId": 1606,
            "contract": "contracts/MasterChef.sol:MasterChef",
            "label": "accKiKiPerShare",
            "offset": 0,
            "slot": "3",
            "type": "t_uint256"
          }
        ],
        "numberOfBytes": "128"
      },
      "t_struct(UserInfo)1598_storage": {
        "encoding": "inplace",
        "label": "struct MasterChef.UserInfo",
        "members": [
          {
            "astId": 1595,
            "contract": "contracts/MasterChef.sol:MasterChef",
            "label": "amount",
            "offset": 0,
            "slot": "0",
            "type": "t_uint256"
          },
          {
            "astId": 1597,
            "contract": "contracts/MasterChef.sol:MasterChef",
            "label": "rewardDebt",
            "offset": 0,
            "slot": "1",
            "type": "t_uint256"
          }
        ],
        "numberOfBytes": "64"
      },
      "t_uint256": {
        "encoding": "inplace",
        "label": "uint256",
        "numberOfBytes": "32"
      }
    }
  }
}