{
  "address": "0xe7f1725E7734CE288F8367e1Bb143E90bb3F0512",
  "abi": [
    {
      "inputs": [
        {
          "internalType": "contract IERC20Mintable",
          "name": "_kiki",
          "type": "address"
        },
        {
          "internalType": "contract SyrupBar",
          "name": "_syrup",
          "type": "address"
        },
        {
          "internalType": "uint256",
          "name": "_kikiPerBlock",
          "type": "uint256"
        },
        {
          "internalType": "uint256",
          "name": "_startBlock",
          "type": "uint256"
        }
      ],
      "stateMutability": "nonpayable",
      "type": "constructor"
    },
    {
      "anonymous": false,
      "inputs": [
        {
          "indexed": true,
          "internalType": "address",
          "name": "user",
          "type": "address"
        },
        {
          "indexed": true,
          "internalType": "uint256",
          "name": "pid",
          "type": "uint256"
        },
        {
          "indexed": false,
          "internalType": "uint256",
          "name": "amount",
          "type": "uint256"
        }
      ],
      "name": "Deposit",
      "type": "event"
    },
    {
      "anonymous": false,
      "inputs": [
        {
          "indexed": true,
          "internalType": "address",
          "name": "user",
          "type": "address"
        },
        {
          "indexed": true,
          "internalType": "uint256",
          "name": "pid",
          "type": "uint256"
        },
        {
          "indexed": false,
          "internalType": "uint256",
          "name": "amount",
          "type": "uint256"
        }
      ],
      "name": "EmergencyWithdraw",
      "type": "event"
    },
    {
      "anonymous": false,
      "inputs": [
        {
          "indexed": false,
          "internalType": "uint256",
          "name": "oldKiKiPerBlock",
          "type": "uint256"
        },
        {
          "indexed": false,
          "internalType": "uint256",
          "name": "newKiKiPerBlock",
          "type": "uint256"
        }
      ],
      "name": "NewKiKiPerBlock",
      "type": "event"
    },
    {
      "anonymous": false,
      "inputs": [
        {
          "indexed": false,
          "internalType": "uint256",
          "name": "oldMultiplier",
          "type": "uint256"
        },
        {
          "indexed": false,
          "internalType": "uint256",
          "name": "newMultiplier",
          "type": "uint256"
        }
      ],
      "name": "NewMultiplier",
      "type": "event"
    },
    {
      "anonymous": false,
      "inputs": [
        {
          "indexed": true,
          "internalType": "address",
          "name": "previousOwner",
          "type": "address"
        },
        {
          "indexed": true,
          "internalType": "address",
          "name": "newOwner",
          "type": "address"
        }
      ],
      "name": "OwnershipTransferred",
      "type": "event"
    },
    {
      "anonymous": false,
      "inputs": [
        {
          "indexed": true,
          "internalType": "address",
          "name": "user",
          "type": "address"
        },
        {
          "indexed": true,
          "internalType": "uint256",
          "name": "pid",
          "type": "uint256"
        },
        {
          "indexed": false,
          "internalType": "uint256",
          "name": "amount",
          "type": "uint256"
        }
      ],
      "name": "Withdraw",
      "type": "event"
    },
    {
      "inputs": [],
      "name": "BONUS_MULTIPLIER",
      "outputs": [
        {
          "internalType": "uint256",
          "name": "",
          "type": "uint256"
        }
      ],
      "stateMutability": "view",
      "type": "function"
    },
    {
      "inputs": [
        {
          "internalType": "uint256",
          "name": "_allocPoint",
          "type": "uint256"
        },
        {
          "internalType": "contract IERC20",
          "name": "_lpToken",
          "type": "address"
        },
        {
          "internalType": "bool",
          "name": "_withUpdate",
          "type": "bool"
        }
      ],
      "name": "add",
      "outputs": [],
      "stateMutability": "nonpayable",
      "type": "function"
    },
    {
      "inputs": [
        {
          "internalType": "uint256",
          "name": "_pid",
          "type": "uint256"
        },
        {
          "internalType": "uint256",
          "name": "_amount",
          "type": "uint256"
        }
      ],
      "name": "deposit",
      "outputs": [],
      "stateMutability": "nonpayable",
      "type": "function"
    },
    {
      "inputs": [
        {
          "internalType": "uint256",
          "name": "_pid",
          "type": "uint256"
        }
      ],
      "name": "emergencyWithdraw",
      "outputs": [],
      "stateMutability": "nonpayable",
      "type": "function"
    },
    {
      "inputs": [
        {
          "internalType": "uint256",
          "name": "_amount",
          "type": "uint256"
        }
      ],
      "name": "enterStaking",
      "outputs": [],
      "stateMutability": "nonpayable",
      "type": "function"
    },
    {
      "inputs": [
        {
          "internalType": "uint256",
          "name": "_from",
          "type": "uint256"
        },
        {
          "internalType": "uint256",
          "name": "_to",
          "type": "uint256"
        }
      ],
      "name": "getMultiplier",
      "outputs": [
        {
          "internalType": "uint256",
          "name": "",
          "type": "uint256"
        }
      ],
      "stateMutability": "view",
      "type": "function"
    },
    {
      "inputs": [],
      "name": "kiki",
      "outputs": [
        {
          "internalType": "contract IERC20Mintable",
          "name": "",
          "type": "address"
        }
      ],
      "stateMutability": "view",
      "type": "function"
    },
    {
      "inputs": [],
      "name": "kikiPerBlock",
      "outputs": [
        {
          "internalType": "uint256",
          "name": "",
          "type": "uint256"
        }
      ],
      "stateMutability": "view",
      "type": "function"
    },
    {
      "inputs": [
        {
          "internalType": "uint256",
          "name": "_amount",
          "type": "uint256"
        }
      ],
      "name": "leaveStaking",
      "outputs": [],
      "stateMutability": "nonpayable",
      "type": "function"
    },
    {
      "inputs": [],
      "name": "massUpdatePools",
      "outputs": [],
      "stateMutability": "nonpayable",
      "type": "function"
    },
    {
      "inputs": [],
      "name": "owner",
      "outputs": [
        {
          "internalType": "address",
          "name": "",
          "type": "address"
        }
      ],
      "stateMutability": "view",
      "type": "function"
    },
    {
      "inputs": [
        {
          "internalType": "uint256",
          "name": "_pid",
          "type": "uint256"
        },
        {
          "internalType": "address",
          "name": "_user",
          "type": "address"
        }
      ],
      "name": "pendingKiKi",
      "outputs": [
        {
          "internalType": "uint256",
          "name": "",
          "type": "uint256"
        }
      ],
      "stateMutability": "view",
      "type": "function"
    },
    {
      "inputs": [
        {
          "internalType": "uint256",
          "name": "",
          "type": "uint256"
        }
      ],
      "name": "poolInfo",
      "outputs": [
        {
          "internalType": "contract IERC20",
          "name": "lpToken",
          "type": "address"
        },
        {
          "internalType": "uint256",
          "name": "allocPoint",
          "type": "uint256"
        },
        {
          "internalType": "uint256",
          "name": "lastRewardBlock",
          "type": "uint256"
        },
        {
          "internalType": "uint256",
          "name": "accKiKiPerShare",
          "type": "uint256"
        }
      ],
      "stateMutability": "view",
      "type": "function"
    },
    {
      "inputs": [],
      "name": "poolLength",
      "outputs": [
        {
          "internalType": "uint256",
          "name": "",
          "type": "uint256"
        }
      ],
      "stateMutability": "view",
      "type": "function"
    },
    {
      "inputs": [],
      "name": "renounceOwnership",
      "outputs": [],
      "stateMutability": "nonpayable",
      "type": "function"
    },
    {
      "inputs": [
        {
          "internalType": "uint256",
          "name": "_pid",
          "type": "uint256"
        },
        {
          "internalType": "uint256",
          "name": "_allocPoint",
          "type": "uint256"
        },
        {
          "internalType": "bool",
          "name": "_withUpdate",
          "type": "bool"
        }
      ],
      "name": "set",
      "outputs": [],
      "stateMutability": "nonpayable",
      "type": "function"
    },
    {
      "inputs": [],
      "name": "startBlock",
      "outputs": [
        {
          "internalType": "uint256",
          "name": "",
          "type": "uint256"
        }
      ],
      "stateMutability": "view",
      "type": "function"
    },
    {
      "inputs": [],
      "name": "syrup",
      "outputs": [
        {
          "internalType": "contract SyrupBar",
          "name": "",
          "type": "address"
        }
      ],
      "stateMutability": "view",
      "type": "function"
    },
    {
      "inputs": [],
      "name": "totalAllocPoint",
      "outputs": [
        {
          "internalType": "uint256",
          "name": "",
          "type": "uint256"
        }
      ],
      "stateMutability": "view",
      "type": "function"
    },
    {
      "inputs": [
        {
          "internalType": "address",
          "name": "newOwner",
          "type": "address"
        }
      ],
      "name": "transferOwnership",
      "outputs": [],
      "stateMutability": "nonpayable",
      "type": "function"
    },
    {
      "inputs": [
        {
          "internalType": "uint256",
          "name": "_kikiPerBlock",
          "type": "uint256"
        },
        {
          "internalType": "bool",
          "name": "_withUpdate",
          "type": "bool"
        }
      ],
      "name": "updateKiKiPerBlock",
      "outputs": [],
      "stateMutability": "nonpayable",
      "type": "function"
    },
    {
      "inputs": [
        {
          "internalType": "uint256",
          "name": "multiplierNumber",
          "type": "uint256"
        },
        {
          "internalType": "bool",
          "name": "withUpdate",
          "type": "bool"
        }
      ],
      "name": "updateMultiplier",
      "outputs": [],
      "stateMutability": "nonpayable",
      "type": "function"
    },
    {
      "inputs": [
        {
          "internalType": "uint256",
          "name": "_pid",
          "type": "uint256"
        }
      ],
      "name": "updatePool",
      "outputs": [],
      "stateMutability": "nonpayable",
      "type": "function"
    },
    {
      "inputs": [
        {
          "internalType": "uint256",
          "name": "",
          "type": "uint256"
        },
        {
          "internalType": "address",
          "name": "",
          "type": "address"
        }
      ],
      "name": "userInfo",
      "outputs": [
        {
          "internalType": "uint256",
          "name": "amount",
          "type": "uint256"
        },
        {
          "internalType": "uint256",
          "name": "rewardDebt",
          "type": "uint256"
        }
      ],
      "stateMutability": "view",
      "type": "function"
    },
    {
      "inputs": [
        {
          "internalType": "uint256",
          "name": "_pid",
          "type": "uint256"
        },
        {
          "internalType": "uint256",
          "name": "_amount",
          "type": "uint256"
        }
      ],
      "name": "withdraw",
      "outputs": [],
      "stateMutability": "nonpayable",
      "type": "function"
    }
  ],
  "transactionHash": "0x76d57c6d4e66592dd8c98e19b230b22c9743f6b4c745da16cbc3bebf97df1d6e",
  "args": [
    "0xf39Fd6e51aad88F6F4ce6aB8827279cffFb92266",
    "0x5FbDB2315678afecb367f032d93F642f64180aa3",
    "2383614000000000",
    0
  ],
  "numDeployments": 1,
  "solcInputHash": "5921e6b4e6dd8583d32db592612adf4c",
  "bytecode": "0x60806040526001600455600060075534801561001a57600080fd5b50604051611dd0380380611dd08339818101604052608081101561003d57600080fd5b5080516020820151604083015160609093015191929091600061005e6101c8565b600080546001600160a01b0319166001600160a01b0383169081178255604051929350917f8be0079c531659141344cd1fd0a4f28419497f9722a3daafe3b4186f6b6457e0908290a350600180546001600160a01b03199081166001600160a01b039687169081178355600280548316968816969096179095556003939093556008829055604080516080810182529485526103e86020860181815291860193845260006060870181815260058054958601815590915295517f036b6384b5eca791c62761152d0c79bb0604c104a5fb6f4eb0703f3154bb3db06004909402938401805490961697169690961790935591517f036b6384b5eca791c62761152d0c79bb0604c104a5fb6f4eb0703f3154bb3db1830155517f036b6384b5eca791c62761152d0c79bb0604c104a5fb6f4eb0703f3154bb3db282015590517f036b6384b5eca791c62761152d0c79bb0604c104a5fb6f4eb0703f3154bb3db3909101556007556101cc565b3390565b611bf5806101db6000396000f3fe608060405234801561001057600080fd5b50600436106101735760003560e01c806364482f79116100de5780638da5cb5b11610097578063b173ade411610071578063b173ade4146103ec578063bf654768146103f4578063e2bbb15814610419578063f2fde38b1461043c57610173565b80638da5cb5b1461037c5780638dbb1e3a1461038457806393f1a40b146103a757610173565b806364482f79146102e8578063715018a6146103135780637710d9001461031b57806384adeb581461034757806386a952c41461036c5780638aa285501461037457610173565b8063441a3e7011610130578063441a3e701461025757806348cd4cb11461027a57806351eb05a6146102825780635312ea8e1461029f5780635d4cbb3c146102bc578063630b5ba1146102e057610173565b8063081e3eda146101785780631058d281146101925780631526fe27146101b157806317caf6f1146101fe5780631eaaa0451461020657806341441d3b1461023a575b600080fd5b610180610462565b60408051918252519081900360200190f35b6101af600480360360208110156101a857600080fd5b5035610468565b005b6101ce600480360360208110156101c757600080fd5b503561064c565b604080516001600160a01b0390951685526020850193909352838301919091526060830152519081900360800190f35b61018061068d565b6101af6004803603606081101561021c57600080fd5b508035906001600160a01b0360208201351690604001351515610693565b6101af6004803603602081101561025057600080fd5b5035610819565b6101af6004803603604081101561026d57600080fd5b50803590602001356109ad565b610180610b52565b6101af6004803603602081101561029857600080fd5b5035610b58565b6101af600480360360208110156102b557600080fd5b5035610d0e565b6102c4610da9565b604080516001600160a01b039092168252519081900360200190f35b6101af610db8565b6101af600480360360608110156102fe57600080fd5b50803590602081013590604001351515610ddb565b6101af610eb8565b6101806004803603604081101561033157600080fd5b50803590602001356001600160a01b0316610f5a565b6101af6004803603604081101561035d57600080fd5b508035906020013515156110be565b6102c4611167565b610180611176565b6102c461117c565b6101806004803603604081101561039a57600080fd5b508035906020013561118b565b6103d3600480360360408110156103bd57600080fd5b50803590602001356001600160a01b03166111a6565b6040805192835260208301919091528051918290030190f35b6101806111ca565b6101af6004803603604081101561040a57600080fd5b508035906020013515156111d0565b6101af6004803603604081101561042f57600080fd5b5080359060200135611279565b6101af6004803603602081101561045257600080fd5b50356001600160a01b03166113dd565b60055490565b6000600560008154811061047857fe5b600091825260208083203384527f54cdd369e4e8a8515e52ca72ec816c2101831ad1f18bf44102ed171459c9b4f89091526040909220805460049092029092019250831115610503576040805162461bcd60e51b81526020600482015260126024820152711dda5d1a191c985dce881b9bdd0819dbdbd960721b604482015290519081900360640190fd5b61050d6000610b58565b6000610547826001015461054164e8d4a5100061053b876003015487600001546114d590919063ffffffff16565b9061152e565b90611570565b905080156105595761055933826115b2565b831561058357815461056b9085611570565b82558254610583906001600160a01b03163386611623565b6003830154825461059e9164e8d4a510009161053b916114d5565b600183015560025460408051632770a7eb60e21b81523360048201526024810187905290516001600160a01b0390921691639dc29fac9160448082019260009290919082900301818387803b1580156105f657600080fd5b505af115801561060a573d6000803e3d6000fd5b5050604080518781529051600093503392507ff279e6a1f5e320cca91135676d9cb6e44ca8a08c0b88342bcdb1144f6511b5689181900360200190a350505050565b6005818154811061065957fe5b600091825260209091206004909102018054600182015460028301546003909301546001600160a01b039092169350919084565b60075481565b61069b61167a565b6000546001600160a01b039081169116146106eb576040805162461bcd60e51b81526020600482018190526024820152600080516020611b76833981519152604482015290519081900360640190fd5b80156106f9576106f9610db8565b6000600854431161070c5760085461070e565b435b60075490915061071e908561167e565b600755604080516080810182526001600160a01b0385811682526020820187815292820184815260006060840181815260058054600181018255925293517f036b6384b5eca791c62761152d0c79bb0604c104a5fb6f4eb0703f3154bb3db0600490920291820180546001600160a01b031916919094161790925592517f036b6384b5eca791c62761152d0c79bb0604c104a5fb6f4eb0703f3154bb3db182015591517f036b6384b5eca791c62761152d0c79bb0604c104a5fb6f4eb0703f3154bb3db2830155517f036b6384b5eca791c62761152d0c79bb0604c104a5fb6f4eb0703f3154bb3db3909101556108136116d8565b50505050565b6000600560008154811061082957fe5b600091825260208083203384527f54cdd369e4e8a8515e52ca72ec816c2101831ad1f18bf44102ed171459c9b4f89091526040832060049092020192509061087090610b58565b8054156108b95760006108a5826001015461054164e8d4a5100061053b876003015487600001546114d590919063ffffffff16565b905080156108b7576108b733826115b2565b505b82156108e55781546108d6906001600160a01b031633308661179d565b80546108e2908461167e565b81555b600382015481546109009164e8d4a510009161053b916114d5565b6001820155600254604080516340c10f1960e01b81523360048201526024810186905290516001600160a01b03909216916340c10f199160448082019260009290919082900301818387803b15801561095857600080fd5b505af115801561096c573d6000803e3d6000fd5b5050604080518681529051600093503392507f90890809c654f11d6e72a28fa60149770a0d11ec6c92319d6ceb2bb0a4ea1a159181900360200190a3505050565b816109ff576040805162461bcd60e51b815260206004820152601a60248201527f7769746864726177204b494b4920627920756e7374616b696e67000000000000604482015290519081900360640190fd5b600060058381548110610a0e57fe5b600091825260208083208684526006825260408085203386529092529220805460049092029092019250831115610a81576040805162461bcd60e51b81526020600482015260126024820152711dda5d1a191c985dce881b9bdd0819dbdbd960721b604482015290519081900360640190fd5b610a8a84610b58565b6000610ab8826001015461054164e8d4a5100061053b876003015487600001546114d590919063ffffffff16565b90508015610aca57610aca33826115b2565b8315610af4578154610adc9085611570565b82558254610af4906001600160a01b03163386611623565b60038301548254610b0f9164e8d4a510009161053b916114d5565b6001830155604080518581529051869133917ff279e6a1f5e320cca91135676d9cb6e44ca8a08c0b88342bcdb1144f6511b5689181900360200190a35050505050565b60085481565b600060058281548110610b6757fe5b9060005260206000209060040201905080600201544311610b885750610d0b565b8054604080516370a0823160e01b815230600482015290516000926001600160a01b0316916370a08231916024808301926020929190829003018186803b158015610bd257600080fd5b505afa158015610be6573d6000803e3d6000fd5b505050506040513d6020811015610bfc57600080fd5b5051905080610c12575043600290910155610d0b565b6000610c2283600201544361118b565b90506000610c4f60075461053b8660010154610c49600354876114d590919063ffffffff16565b906114d5565b600154600254604080516340c10f1960e01b81526001600160a01b0392831660048201526024810185905290519394509116916340c10f19916044808201926020929091908290030181600087803b158015610caa57600080fd5b505af1158015610cbe573d6000803e3d6000fd5b505050506040513d6020811015610cd457600080fd5b50610cf89050610ced8461053b8464e8d4a510006114d5565b60038601549061167e565b6003850155505043600290920191909155505b50565b600060058281548110610d1d57fe5b60009182526020808320858452600682526040808520338087529352909320805460049093029093018054909450610d62926001600160a01b03919091169190611623565b80546040805191825251849133917fbb757047c2b5f3974fe26b7c10f732e7bce710b0952a71082702781e62ae05959181900360200190a360008082556001909101555050565b6001546001600160a01b031681565b60055460005b81811015610dd757610dcf81610b58565b600101610dbe565b5050565b610de361167a565b6000546001600160a01b03908116911614610e33576040805162461bcd60e51b81526020600482018190526024820152600080516020611b76833981519152604482015290519081900360640190fd5b8015610e4157610e41610db8565b600060058481548110610e5057fe5b90600052602060002090600402016001015490508260058581548110610e7257fe5b90600052602060002090600402016001018190555082811461081357610ead83610ea78360075461157090919063ffffffff16565b9061167e565b6007556108136116d8565b610ec061167a565b6000546001600160a01b03908116911614610f10576040805162461bcd60e51b81526020600482018190526024820152600080516020611b76833981519152604482015290519081900360640190fd5b600080546040516001600160a01b03909116907f8be0079c531659141344cd1fd0a4f28419497f9722a3daafe3b4186f6b6457e0908390a3600080546001600160a01b0319169055565b60008060058481548110610f6a57fe5b600091825260208083208784526006825260408085206001600160a01b03898116875290845281862060049586029093016003810154815484516370a0823160e01b81523098810198909852935191985093969395939492909116926370a08231926024808301939192829003018186803b158015610fe857600080fd5b505afa158015610ffc573d6000803e3d6000fd5b505050506040513d602081101561101257600080fd5b505160028501549091504311801561102957508015155b1561108957600061103e85600201544361118b565b9050600061106560075461053b8860010154610c49600354876114d590919063ffffffff16565b905061108461107d8461053b8464e8d4a510006114d5565b859061167e565b935050505b6110b1836001015461054164e8d4a5100061053b8688600001546114d590919063ffffffff16565b9450505050505b92915050565b6110c661167a565b6000546001600160a01b03908116911614611116576040805162461bcd60e51b81526020600482018190526024820152600080516020611b76833981519152604482015290519081900360640190fd5b801561112457611124610db8565b600354604080519182526020820184905280517f34f475e2a76ecab3078032a810903af0677b4eecbc73cff49b27ef672f581c3a9281900390910190a150600355565b6002546001600160a01b031681565b60045481565b6000546001600160a01b031690565b60045460009061119f90610c498486611570565b9392505050565b60066020908152600092835260408084209091529082529020805460019091015482565b60035481565b6111d861167a565b6000546001600160a01b03908116911614611228576040805162461bcd60e51b81526020600482018190526024820152600080516020611b76833981519152604482015290519081900360640190fd5b801561123657611236610db8565b600454604080519182526020820184905280517fbb69b052a57be2126300a5702ad98a79ab8ac71f0d3f61df1fde7e4c681433439281900390910190a150600455565b816112cb576040805162461bcd60e51b815260206004820152601760248201527f6465706f736974204b494b49206279207374616b696e67000000000000000000604482015290519081900360640190fd5b6000600583815481106112da57fe5b6000918252602080832086845260068252604080852033865290925292206004909102909101915061130b84610b58565b805415611354576000611340826001015461054164e8d4a5100061053b876003015487600001546114d590919063ffffffff16565b905080156113525761135233826115b2565b505b8215611380578154611371906001600160a01b031633308661179d565b805461137d908461167e565b81555b6003820154815461139b9164e8d4a510009161053b916114d5565b6001820155604080518481529051859133917f90890809c654f11d6e72a28fa60149770a0d11ec6c92319d6ceb2bb0a4ea1a159181900360200190a350505050565b6113e561167a565b6000546001600160a01b03908116911614611435576040805162461bcd60e51b81526020600482018190526024820152600080516020611b76833981519152604482015290519081900360640190fd5b6001600160a01b03811661147a5760405162461bcd60e51b8152600401808060200182810382526026815260200180611b2f6026913960400191505060405180910390fd5b600080546040516001600160a01b03808516939216917f8be0079c531659141344cd1fd0a4f28419497f9722a3daafe3b4186f6b6457e091a3600080546001600160a01b0319166001600160a01b0392909216919091179055565b6000826114e4575060006110b8565b828202828482816114f157fe5b041461119f5760405162461bcd60e51b8152600401808060200182810382526021815260200180611b556021913960400191505060405180910390fd5b600061119f83836040518060400160405280601a81526020017f536166654d6174683a206469766973696f6e206279207a65726f0000000000008152506117f7565b600061119f83836040518060400160405280601e81526020017f536166654d6174683a207375627472616374696f6e206f766572666c6f770000815250611899565b60025460408051631777090b60e21b81526001600160a01b0385811660048301526024820185905291519190921691635ddc242c91604480830192600092919082900301818387803b15801561160757600080fd5b505af115801561161b573d6000803e3d6000fd5b505050505050565b604080516001600160a01b038416602482015260448082018490528251808303909101815260649091019091526020810180516001600160e01b031663a9059cbb60e01b1790526116759084906118f3565b505050565b3390565b60008282018381101561119f576040805162461bcd60e51b815260206004820152601b60248201527f536166654d6174683a206164646974696f6e206f766572666c6f770000000000604482015290519081900360640190fd5b600554600060015b8281101561172357611719600582815481106116f857fe5b9060005260206000209060040201600101548361167e90919063ffffffff16565b91506001016116e0565b508015610dd75761173581600361152e565b905061176f81610ea7600560008154811061174c57fe5b90600052602060002090600402016001015460075461157090919063ffffffff16565b60078190555080600560008154811061178457fe5b9060005260206000209060040201600101819055505050565b604080516001600160a01b0380861660248301528416604482015260648082018490528251808303909101815260849091019091526020810180516001600160e01b03166323b872dd60e01b1790526108139085906118f3565b600081836118835760405162461bcd60e51b81526004018080602001828103825283818151815260200191508051906020019080838360005b83811015611848578181015183820152602001611830565b50505050905090810190601f1680156118755780820380516001836020036101000a031916815260200191505b509250505060405180910390fd5b50600083858161188f57fe5b0495945050505050565b600081848411156118eb5760405162461bcd60e51b8152602060048201818152835160248401528351909283926044909101919085019080838360008315611848578181015183820152602001611830565b505050900390565b6060611948826040518060400160405280602081526020017f5361666545524332303a206c6f772d6c6576656c2063616c6c206661696c6564815250856001600160a01b03166119a49092919063ffffffff16565b8051909150156116755780806020019051602081101561196757600080fd5b50516116755760405162461bcd60e51b815260040180806020018281038252602a815260200180611b96602a913960400191505060405180910390fd5b60606119b384846000856119bb565b949350505050565b60606119c685611b28565b611a17576040805162461bcd60e51b815260206004820152601d60248201527f416464726573733a2063616c6c20746f206e6f6e2d636f6e7472616374000000604482015290519081900360640190fd5b60006060866001600160a01b031685876040518082805190602001908083835b60208310611a565780518252601f199092019160209182019101611a37565b6001836020036101000a03801982511681845116808217855250505050505090500191505060006040518083038185875af1925050503d8060008114611ab8576040519150601f19603f3d011682016040523d82523d6000602084013e611abd565b606091505b50915091508115611ad15791506119b39050565b805115611ae15780518082602001fd5b60405162461bcd60e51b8152602060048201818152865160248401528651879391928392604401919085019080838360008315611848578181015183820152602001611830565b3b15159056fe4f776e61626c653a206e6577206f776e657220697320746865207a65726f2061646472657373536166654d6174683a206d756c7469706c69636174696f6e206f766572666c6f774f776e61626c653a2063616c6c6572206973206e6f7420746865206f776e65725361666545524332303a204552433230206f7065726174696f6e20646964206e6f742073756363656564a2646970667358221220ceddb79c96f46c79c0de859baabb2796c9e8d260ce494f81ae26457c55d01e0364736f6c634300060c0033",
  "devdoc": {
    "kind": "dev",
    "methods": {
      "owner()": {
        "details": "Returns the address of the current owner."
      },
      "renounceOwnership()": {
        "details": "Leaves the contract without owner. It will not be possible to call `onlyOwner` functions anymore. Can only be called by the current owner. NOTE: Renouncing ownership will leave the contract without an owner, thereby removing any functionality that is only available to the owner."
      },
      "transferOwnership(address)": {
        "details": "Transfers ownership of the contract to a new account (`newOwner`). Can only be called by the current owner."
      }
    },
    "version": 1
  },
  "userdoc": {
    "kind": "user",
    "methods": {},
    "version": 1
  },
  "storageLayout": {
    "storage": [
      {
        "astId": 30,
        "contract": "contracts/MasterChef.sol:MasterChef",
        "label": "_owner",
        "offset": 0,
        "slot": "0",
        "type": "t_address"
      },
      {
        "astId": 1352,
        "contract": "contracts/MasterChef.sol:MasterChef",
        "label": "kiki",
        "offset": 0,
        "slot": "1",
        "type": "t_contract(IERC20Mintable)2581"
      },
      {
        "astId": 1354,
        "contract": "contracts/MasterChef.sol:MasterChef",
        "label": "syrup",
        "offset": 0,
        "slot": "2",
        "type": "t_contract(SyrupBar)2566"
      },
      {
        "astId": 1356,
        "contract": "contracts/MasterChef.sol:MasterChef",
        "label": "kikiPerBlock",
        "offset": 0,
        "slot": "3",
        "type": "t_uint256"
      },
      {
        "astId": 1359,
        "contract": "contracts/MasterChef.sol:MasterChef",
        "label": "BONUS_MULTIPLIER",
        "offset": 0,
        "slot": "4",
        "type": "t_uint256"
      },
      {
        "astId": 1362,
        "contract": "contracts/MasterChef.sol:MasterChef",
        "label": "poolInfo",
        "offset": 0,
        "slot": "5",
        "type": "t_array(t_struct(PoolInfo)1350_storage)dyn_storage"
      },
      {
        "astId": 1368,
        "contract": "contracts/MasterChef.sol:MasterChef",
        "label": "userInfo",
        "offset": 0,
        "slot": "6",
        "type": "t_mapping(t_uint256,t_mapping(t_address,t_struct(UserInfo)1341_storage))"
      },
      {
        "astId": 1371,
        "contract": "contracts/MasterChef.sol:MasterChef",
        "label": "totalAllocPoint",
        "offset": 0,
        "slot": "7",
        "type": "t_uint256"
      },
      {
        "astId": 1373,
        "contract": "contracts/MasterChef.sol:MasterChef",
        "label": "startBlock",
        "offset": 0,
        "slot": "8",
        "type": "t_uint256"
      }
    ],
    "types": {
      "t_address": {
        "encoding": "inplace",
        "label": "address",
        "numberOfBytes": "20"
      },
      "t_array(t_struct(PoolInfo)1350_storage)dyn_storage": {
        "base": "t_struct(PoolInfo)1350_storage",
        "encoding": "dynamic_array",
        "label": "struct MasterChef.PoolInfo[]",
        "numberOfBytes": "32"
      },
      "t_contract(IERC20)912": {
        "encoding": "inplace",
        "label": "contract IERC20",
        "numberOfBytes": "20"
      },
      "t_contract(IERC20Mintable)2581": {
        "encoding": "inplace",
        "label": "contract IERC20Mintable",
        "numberOfBytes": "20"
      },
      "t_contract(SyrupBar)2566": {
        "encoding": "inplace",
        "label": "contract SyrupBar",
        "numberOfBytes": "20"
      },
      "t_mapping(t_address,t_struct(UserInfo)1341_storage)": {
        "encoding": "mapping",
        "key": "t_address",
        "label": "mapping(address => struct MasterChef.UserInfo)",
        "numberOfBytes": "32",
        "value": "t_struct(UserInfo)1341_storage"
      },
      "t_mapping(t_uint256,t_mapping(t_address,t_struct(UserInfo)1341_storage))": {
        "encoding": "mapping",
        "key": "t_uint256",
        "label": "mapping(uint256 => mapping(address => struct MasterChef.UserInfo))",
        "numberOfBytes": "32",
        "value": "t_mapping(t_address,t_struct(UserInfo)1341_storage)"
      },
      "t_struct(PoolInfo)1350_storage": {
        "encoding": "inplace",
        "label": "struct MasterChef.PoolInfo",
        "members": [
          {
            "astId": 1343,
            "contract": "contracts/MasterChef.sol:MasterChef",
            "label": "lpToken",
            "offset": 0,
            "slot": "0",
            "type": "t_contract(IERC20)912"
          },
          {
            "astId": 1345,
            "contract": "contracts/MasterChef.sol:MasterChef",
            "label": "allocPoint",
            "offset": 0,
            "slot": "1",
            "type": "t_uint256"
          },
          {
            "astId": 1347,
            "contract": "contracts/MasterChef.sol:MasterChef",
            "label": "lastRewardBlock",
            "offset": 0,
            "slot": "2",
            "type": "t_uint256"
          },
          {
            "astId": 1349,
            "contract": "contracts/MasterChef.sol:MasterChef",
            "label": "accKiKiPerShare",
            "offset": 0,
            "slot": "3",
            "type": "t_uint256"
          }
        ],
        "numberOfBytes": "128"
      },
      "t_struct(UserInfo)1341_storage": {
        "encoding": "inplace",
        "label": "struct MasterChef.UserInfo",
        "members": [
          {
            "astId": 1338,
            "contract": "contracts/MasterChef.sol:MasterChef",
            "label": "amount",
            "offset": 0,
            "slot": "0",
            "type": "t_uint256"
          },
          {
            "astId": 1340,
            "contract": "contracts/MasterChef.sol:MasterChef",
            "label": "rewardDebt",
            "offset": 0,
            "slot": "1",
            "type": "t_uint256"
          }
        ],
        "numberOfBytes": "64"
      },
      "t_uint256": {
        "encoding": "inplace",
        "label": "uint256",
        "numberOfBytes": "32"
      }
    }
  }
}